{
  "contractName": "AccessRegistry",
  "abi": [
    {
      "anonymous": false,
      "inputs": [
        {
          "indexed": true,
          "internalType": "address",
          "name": "user",
          "type": "address"
        },
        {
          "indexed": false,
          "internalType": "string",
          "name": "data",
          "type": "string"
        }
      ],
      "name": "DataUpdated",
      "type": "event"
    },
    {
      "inputs": [
        {
          "internalType": "string",
          "name": "data",
          "type": "string"
        }
      ],
      "name": "setUserData",
      "outputs": [],
      "stateMutability": "nonpayable",
      "type": "function"
    },
    {
      "inputs": [
        {
          "internalType": "address",
          "name": "user",
          "type": "address"
        }
      ],
      "name": "getUserData",
      "outputs": [
        {
          "internalType": "string",
          "name": "",
          "type": "string"
        }
      ],
      "stateMutability": "view",
      "type": "function"
    }
  ],
  "bytecode": "0x608060405234801561001057600080fd5b506105bf806100206000396000f3fe608060405234801561001057600080fd5b50600436106100365760003560e01c806350aed3791461003b578063ffc9896b14610057575b600080fd5b61005560048036038101906100509190610344565b610087565b005b610071600480360381019061006c919061031b565b61012b565b60405161007e91906103be565b60405180910390f35b806000803373ffffffffffffffffffffffffffffffffffffffff1673ffffffffffffffffffffffffffffffffffffffff16815260200190815260200160002090805190602001906100d99291906101fb565b503373ffffffffffffffffffffffffffffffffffffffff167f077380cc4f1ff57ad464ec617331c7304c78fc6bfdd0e3b5efa221a3bb9f6e208260405161012091906103be565b60405180910390a250565b60606000808373ffffffffffffffffffffffffffffffffffffffff1673ffffffffffffffffffffffffffffffffffffffff1681526020019081526020016000208054610176906104d1565b80601f01602080910402602001604051908101604052809291908181526020018280546101a2906104d1565b80156101ef5780601f106101c4576101008083540402835291602001916101ef565b820191906000526020600020905b8154815290600101906020018083116101d257829003601f168201915b50505050509050919050565b828054610207906104d1565b90600052602060002090601f0160209004810192826102295760008555610270565b82601f1061024257805160ff1916838001178555610270565b82800160010185558215610270579182015b8281111561026f578251825591602001919060010190610254565b5b50905061027d9190610281565b5090565b5b8082111561029a576000816000905550600101610282565b5090565b60006102b16102ac84610411565b6103e0565b9050828152602081018484840111156102c957600080fd5b6102d484828561048f565b509392505050565b6000813590506102eb81610572565b92915050565b600082601f83011261030257600080fd5b813561031284826020860161029e565b91505092915050565b60006020828403121561032d57600080fd5b600061033b848285016102dc565b91505092915050565b60006020828403121561035657600080fd5b600082013567ffffffffffffffff81111561037057600080fd5b61037c848285016102f1565b91505092915050565b600061039082610441565b61039a818561044c565b93506103aa81856020860161049e565b6103b381610561565b840191505092915050565b600060208201905081810360008301526103d88184610385565b905092915050565b6000604051905081810181811067ffffffffffffffff8211171561040757610406610532565b5b8060405250919050565b600067ffffffffffffffff82111561042c5761042b610532565b5b601f19601f8301169050602081019050919050565b600081519050919050565b600082825260208201905092915050565b60006104688261046f565b9050919050565b600073ffffffffffffffffffffffffffffffffffffffff82169050919050565b82818337600083830152505050565b60005b838110156104bc5780820151818401526020810190506104a1565b838111156104cb576000848401525b50505050565b600060028204905060018216806104e957607f821691505b602082108114156104fd576104fc610503565b5b50919050565b7f4e487b7100000000000000000000000000000000000000000000000000000000600052602260045260246000fd5b7f4e487b7100000000000000000000000000000000000000000000000000000000600052604160045260246000fd5b6000601f19601f8301169050919050565b61057b8161045d565b811461058657600080fd5b5056fea2646970667358221220f2b55a74fe56c2c5f13a2572645252d8f10901d52830af243aafc9bc8015b18b64736f6c63430008000033",
  "immutableReferences": {},
  "source": "// SPDX-License-Identifier: MIT\npragma solidity ^0.8.0;\n\ncontract AccessRegistry {\n    mapping(address => string) private userData;\n    event DataUpdated(address indexed user, string data);\n\n    function setUserData(string memory data) public {\n        userData[msg.sender] = data;\n        emit DataUpdated(msg.sender, data);\n    }\n\n    function getUserData(address user) public view returns (string memory) {\n        return userData[user];\n    }\n}\n",
  "sourcePath": "/Users/razvancarcadea/Desktop/dizertatie/decentralized-auth/contracts/AccessRegistry.sol",
  "compiler": {
    "name": "solc",
    "version": "0.8.0+commit.c7dfd78e.Emscripten.clang"
  },
  "schemaVersion": "3.4.16",
  "updatedAt": "2025-05-27T16:26:55.558Z",
  "devdoc": {
    "kind": "dev",
    "methods": {},
    "version": 1
  },
  "userdoc": {
    "kind": "user",
    "methods": {},
    "version": 1
  }
}