{
  "contractName": "AuthenticationRegistry",
  "abi": [
    {
      "anonymous": false,
      "inputs": [
        {
          "indexed": true,
          "internalType": "address",
          "name": "user",
          "type": "address"
        },
        {
          "indexed": false,
          "internalType": "string",
          "name": "nonce",
          "type": "string"
        }
      ],
      "name": "NonceGenerated",
      "type": "event"
    },
    {
      "anonymous": false,
      "inputs": [
        {
          "indexed": true,
          "internalType": "address",
          "name": "user",
          "type": "address"
        },
        {
          "indexed": false,
          "internalType": "string",
          "name": "publicKey",
          "type": "string"
        }
      ],
      "name": "PublicKeyRegistered",
      "type": "event"
    },
    {
      "inputs": [
        {
          "internalType": "address",
          "name": "",
          "type": "address"
        }
      ],
      "name": "nonces",
      "outputs": [
        {
          "internalType": "string",
          "name": "",
          "type": "string"
        }
      ],
      "stateMutability": "view",
      "type": "function",
      "constant": true
    },
    {
      "inputs": [
        {
          "internalType": "address",
          "name": "",
          "type": "address"
        }
      ],
      "name": "publicKeys",
      "outputs": [
        {
          "internalType": "string",
          "name": "",
          "type": "string"
        }
      ],
      "stateMutability": "view",
      "type": "function",
      "constant": true
    },
    {
      "inputs": [
        {
          "internalType": "string",
          "name": "publicKey",
          "type": "string"
        }
      ],
      "name": "registerPublicKey",
      "outputs": [],
      "stateMutability": "nonpayable",
      "type": "function"
    },
    {
      "inputs": [
        {
          "internalType": "address",
          "name": "user",
          "type": "address"
        }
      ],
      "name": "getPublicKey",
      "outputs": [
        {
          "internalType": "string",
          "name": "",
          "type": "string"
        }
      ],
      "stateMutability": "view",
      "type": "function",
      "constant": true
    },
    {
      "inputs": [
        {
          "internalType": "address",
          "name": "user",
          "type": "address"
        },
        {
          "internalType": "string",
          "name": "nonce",
          "type": "string"
        }
      ],
      "name": "storeNonce",
      "outputs": [],
      "stateMutability": "nonpayable",
      "type": "function"
    },
    {
      "inputs": [
        {
          "internalType": "address",
          "name": "user",
          "type": "address"
        }
      ],
      "name": "getNonce",
      "outputs": [
        {
          "internalType": "string",
          "name": "",
          "type": "string"
        }
      ],
      "stateMutability": "view",
      "type": "function",
      "constant": true
    }
  ],
  "bytecode": "0x608060405234801561001057600080fd5b50610a90806100206000396000f3fe608060405234801561001057600080fd5b50600436106100625760003560e01c80632d0335ab146100675780637ecebe0014610097578063857cdbb8146100c7578063a3d6f9a9146100f7578063e3a8131314610127578063f590b65f14610143575b600080fd5b610081600480360381019061007c9190610738565b61015f565b60405161008e919061086f565b60405180910390f35b6100b160048036038101906100ac9190610738565b610230565b6040516100be919061086f565b60405180910390f35b6100e160048036038101906100dc9190610738565b6102d0565b6040516100ee919061086f565b60405180910390f35b610111600480360381019061010c9190610738565b6103a0565b60405161011e919061086f565b60405180910390f35b610141600480360381019061013c9190610761565b610440565b005b61015d600480360381019061015891906107b5565b610574565b005b6060600160008373ffffffffffffffffffffffffffffffffffffffff1673ffffffffffffffffffffffffffffffffffffffff16815260200190815260200160002080546101ab906109a2565b80601f01602080910402602001604051908101604052809291908181526020018280546101d7906109a2565b80156102245780601f106101f957610100808354040283529160200191610224565b820191906000526020600020905b81548152906001019060200180831161020757829003601f168201915b50505050509050919050565b6001602052806000526040600020600091509050805461024f906109a2565b80601f016020809104026020016040519081016040528092919081815260200182805461027b906109a2565b80156102c85780601f1061029d576101008083540402835291602001916102c8565b820191906000526020600020905b8154815290600101906020018083116102ab57829003601f168201915b505050505081565b60606000808373ffffffffffffffffffffffffffffffffffffffff1673ffffffffffffffffffffffffffffffffffffffff168152602001908152602001600020805461031b906109a2565b80601f0160208091040260200160405190810160405280929190818152602001828054610347906109a2565b80156103945780601f1061036957610100808354040283529160200191610394565b820191906000526020600020905b81548152906001019060200180831161037757829003601f168201915b50505050509050919050565b600060205280600052604060002060009150905080546103bf906109a2565b80601f01602080910402602001604051908101604052809291908181526020018280546103eb906109a2565b80156104385780601f1061040d57610100808354040283529160200191610438565b820191906000526020600020905b81548152906001019060200180831161041b57829003601f168201915b505050505081565b60008060008473ffffffffffffffffffffffffffffffffffffffff1673ffffffffffffffffffffffffffffffffffffffff168152602001908152602001600020805461048b906109a2565b905014156104ce576040517f08c379a00000000000000000000000000000000000000000000000000000000081526004016104c590610891565b60405180910390fd5b80600160008473ffffffffffffffffffffffffffffffffffffffff1673ffffffffffffffffffffffffffffffffffffffff1681526020019081526020016000209080519060200190610521929190610618565b508173ffffffffffffffffffffffffffffffffffffffff167f8a58ec4a34748cb7fe61f9e43c8b5c9a377cd46d2dcae500e98b6b067018129a82604051610568919061086f565b60405180910390a25050565b806000803373ffffffffffffffffffffffffffffffffffffffff1673ffffffffffffffffffffffffffffffffffffffff16815260200190815260200160002090805190602001906105c6929190610618565b503373ffffffffffffffffffffffffffffffffffffffff167fe6ba8490d82d58e83a08a0bfc5814e885bad83c28c703c75bcbf5ed6054300f68260405161060d919061086f565b60405180910390a250565b828054610624906109a2565b90600052602060002090601f016020900481019282610646576000855561068d565b82601f1061065f57805160ff191683800117855561068d565b8280016001018555821561068d579182015b8281111561068c578251825591602001919060010190610671565b5b50905061069a919061069e565b5090565b5b808211156106b757600081600090555060010161069f565b5090565b60006106ce6106c9846108e2565b6108b1565b9050828152602081018484840111156106e657600080fd5b6106f1848285610960565b509392505050565b60008135905061070881610a43565b92915050565b600082601f83011261071f57600080fd5b813561072f8482602086016106bb565b91505092915050565b60006020828403121561074a57600080fd5b6000610758848285016106f9565b91505092915050565b6000806040838503121561077457600080fd5b6000610782858286016106f9565b925050602083013567ffffffffffffffff81111561079f57600080fd5b6107ab8582860161070e565b9150509250929050565b6000602082840312156107c757600080fd5b600082013567ffffffffffffffff8111156107e157600080fd5b6107ed8482850161070e565b91505092915050565b600061080182610912565b61080b818561091d565b935061081b81856020860161096f565b61082481610a32565b840191505092915050565b600061083c60138361091d565b91507f55736572206e6f742072656769737465726564000000000000000000000000006000830152602082019050919050565b6000602082019050818103600083015261088981846107f6565b905092915050565b600060208201905081810360008301526108aa8161082f565b9050919050565b6000604051905081810181811067ffffffffffffffff821117156108d8576108d7610a03565b5b8060405250919050565b600067ffffffffffffffff8211156108fd576108fc610a03565b5b601f19601f8301169050602081019050919050565b600081519050919050565b600082825260208201905092915050565b600061093982610940565b9050919050565b600073ffffffffffffffffffffffffffffffffffffffff82169050919050565b82818337600083830152505050565b60005b8381101561098d578082015181840152602081019050610972565b8381111561099c576000848401525b50505050565b600060028204905060018216806109ba57607f821691505b602082108114156109ce576109cd6109d4565b5b50919050565b7f4e487b7100000000000000000000000000000000000000000000000000000000600052602260045260246000fd5b7f4e487b7100000000000000000000000000000000000000000000000000000000600052604160045260246000fd5b6000601f19601f8301169050919050565b610a4c8161092e565b8114610a5757600080fd5b5056fea2646970667358221220096a18d0d45d1110a71c237e7db9123236f5ce06498903600bcd61e9c4e8cfc264736f6c63430008000033",
  "immutableReferences": {},
  "source": "// SPDX-License-Identifier: MIT\npragma solidity ^0.8.0;\n\ncontract AuthenticationRegistry {\n    mapping(address => string) public publicKeys;\n    mapping(address => string) public nonces;\n\n    event PublicKeyRegistered(address indexed user, string publicKey);\n    event NonceGenerated(address indexed user, string nonce);\n\n    function registerPublicKey(string memory publicKey) public {\n        publicKeys[msg.sender] = publicKey;\n        emit PublicKeyRegistered(msg.sender, publicKey);\n    }\n\n    function getPublicKey(address user) public view returns (string memory) {\n        return publicKeys[user];\n    }\n\n    function storeNonce(address user, string memory nonce) public {\n        require(bytes(publicKeys[user]).length != 0, \"User not registered\");\n        nonces[user] = nonce;\n        emit NonceGenerated(user, nonce);\n    }\n\n    function getNonce(address user) public view returns (string memory) {\n        return nonces[user];\n    }\n}\n",
  "sourcePath": "/Users/razvancarcadea/Desktop/dizertatie/decentralized-auth/contracts/AuthenticationRegistry.sol",
  "compiler": {
    "name": "solc",
    "version": "0.8.0+commit.c7dfd78e.Emscripten.clang"
  },
  "schemaVersion": "3.4.16",
  "updatedAt": "2025-01-31T15:33:01.146Z",
  "networkType": "ethereum",
  "devdoc": {
    "kind": "dev",
    "methods": {},
    "version": 1
  },
  "userdoc": {
    "kind": "user",
    "methods": {},
    "version": 1
  }
}