{
  "contractName": "AuthenticationRegistry",
  "abi": [
    {
      "anonymous": false,
      "inputs": [
        {
          "indexed": true,
          "internalType": "address",
          "name": "user",
          "type": "address"
        },
        {
          "indexed": false,
          "internalType": "string",
          "name": "signedNonce",
          "type": "string"
        },
        {
          "indexed": false,
          "internalType": "bool",
          "name": "isDuplicate",
          "type": "bool"
        }
      ],
      "name": "NonceChecked",
      "type": "event"
    },
    {
      "anonymous": false,
      "inputs": [
        {
          "indexed": true,
          "internalType": "address",
          "name": "user",
          "type": "address"
        },
        {
          "indexed": false,
          "internalType": "string",
          "name": "signedNonce",
          "type": "string"
        }
      ],
      "name": "NonceRegistered",
      "type": "event"
    },
    {
      "inputs": [
        {
          "internalType": "address",
          "name": "",
          "type": "address"
        }
      ],
      "name": "nonceTimestamps",
      "outputs": [
        {
          "internalType": "uint256",
          "name": "",
          "type": "uint256"
        }
      ],
      "stateMutability": "view",
      "type": "function",
      "constant": true
    },
    {
      "inputs": [
        {
          "internalType": "address",
          "name": "",
          "type": "address"
        },
        {
          "internalType": "uint256",
          "name": "",
          "type": "uint256"
        }
      ],
      "name": "userNonces",
      "outputs": [
        {
          "internalType": "string",
          "name": "",
          "type": "string"
        }
      ],
      "stateMutability": "view",
      "type": "function",
      "constant": true
    },
    {
      "inputs": [
        {
          "internalType": "address",
          "name": "user",
          "type": "address"
        },
        {
          "internalType": "string",
          "name": "signedNonce",
          "type": "string"
        }
      ],
      "name": "registerPublicKeyAndNonce",
      "outputs": [],
      "stateMutability": "nonpayable",
      "type": "function"
    },
    {
      "inputs": [
        {
          "internalType": "address",
          "name": "user",
          "type": "address"
        }
      ],
      "name": "getUserNoncesLength",
      "outputs": [
        {
          "internalType": "uint256",
          "name": "",
          "type": "uint256"
        }
      ],
      "stateMutability": "view",
      "type": "function",
      "constant": true
    },
    {
      "inputs": [
        {
          "internalType": "address",
          "name": "user",
          "type": "address"
        }
      ],
      "name": "getSignedNonce",
      "outputs": [
        {
          "internalType": "string",
          "name": "",
          "type": "string"
        }
      ],
      "stateMutability": "view",
      "type": "function",
      "constant": true
    }
  ],
  "bytecode": "0x608060405234801561001057600080fd5b50610e0c806100206000396000f3fe608060405234801561001057600080fd5b50600436106100575760003560e01c80631b3e128f1461005c578063572b8a32146100785780635f8f4e9d146100a8578063781c26cd146100d8578063d9cef79314610108575b600080fd5b61007660048036038101906100719190610864565b610138565b005b610092600480360381019061008d919061083b565b610429565b60405161009f9190610a87565b60405180910390f35b6100c260048036038101906100bd91906108b8565b6105ea565b6040516100cf9190610a87565b60405180910390f35b6100f260048036038101906100ed919061083b565b6106a3565b6040516100ff9190610b19565b60405180910390f35b610122600480360381019061011d919061083b565b6106bb565b60405161012f9190610b19565b60405180910390f35b60008082511161017d576040517f08c379a000000000000000000000000000000000000000000000000000000000815260040161017490610ad9565b60405180910390fd5b60005b6000808573ffffffffffffffffffffffffffffffffffffffff1673ffffffffffffffffffffffffffffffffffffffff168152602001908152602001600020805490508110156102885782805190602001206000808673ffffffffffffffffffffffffffffffffffffffff1673ffffffffffffffffffffffffffffffffffffffff1681526020019081526020016000208281548110610247577f4e487b7100000000000000000000000000000000000000000000000000000000600052603260045260246000fd5b9060005260206000200160405161025e9190610a70565b604051809103902014156102755760019150610288565b808061028090610cc1565b915050610180565b508273ffffffffffffffffffffffffffffffffffffffff167f3f37076a9631514c6b72723d8c6c2c9fb73252a3d60de92ac4817b7436c9894383836040516102d1929190610aa9565b60405180910390a2801561031a576040517f08c379a000000000000000000000000000000000000000000000000000000000815260040161031190610af9565b60405180910390fd5b6000808473ffffffffffffffffffffffffffffffffffffffff1673ffffffffffffffffffffffffffffffffffffffff16815260200190815260200160002082908060018154018082558091505060019003906000526020600020016000909190919091509080519060200190610391929190610706565b5042600160008573ffffffffffffffffffffffffffffffffffffffff1673ffffffffffffffffffffffffffffffffffffffff168152602001908152602001600020819055508273ffffffffffffffffffffffffffffffffffffffff167f12860ff1ed3192c40273ba7f869601b1a5493a8c0eb516dc27db8a7fca51e2cb8360405161041c9190610a87565b60405180910390a2505050565b606060008060008473ffffffffffffffffffffffffffffffffffffffff1673ffffffffffffffffffffffffffffffffffffffff16815260200190815260200160002080549050141561048c576040518060200160405280600081525090506105e5565b6000808373ffffffffffffffffffffffffffffffffffffffff1673ffffffffffffffffffffffffffffffffffffffff16815260200190815260200160002060016000808573ffffffffffffffffffffffffffffffffffffffff1673ffffffffffffffffffffffffffffffffffffffff168152602001908152602001600020805490506105189190610bd1565b8154811061054f577f4e487b7100000000000000000000000000000000000000000000000000000000600052603260045260246000fd5b90600052602060002001805461056490610c8f565b80601f016020809104026020016040519081016040528092919081815260200182805461059090610c8f565b80156105dd5780601f106105b2576101008083540402835291602001916105dd565b820191906000526020600020905b8154815290600101906020018083116105c057829003601f168201915b505050505090505b919050565b6000602052816000526040600020818154811061060657600080fd5b9060005260206000200160009150915050805461062290610c8f565b80601f016020809104026020016040519081016040528092919081815260200182805461064e90610c8f565b801561069b5780601f106106705761010080835404028352916020019161069b565b820191906000526020600020905b81548152906001019060200180831161067e57829003601f168201915b505050505081565b60016020528060005260406000206000915090505481565b60008060008373ffffffffffffffffffffffffffffffffffffffff1673ffffffffffffffffffffffffffffffffffffffff168152602001908152602001600020805490509050919050565b82805461071290610c8f565b90600052602060002090601f016020900481019282610734576000855561077b565b82601f1061074d57805160ff191683800117855561077b565b8280016001018555821561077b579182015b8281111561077a57825182559160200191906001019061075f565b5b509050610788919061078c565b5090565b5b808211156107a557600081600090555060010161078d565b5090565b60006107bc6107b784610b65565b610b34565b9050828152602081018484840111156107d457600080fd5b6107df848285610c4d565b509392505050565b6000813590506107f681610da8565b92915050565b600082601f83011261080d57600080fd5b813561081d8482602086016107a9565b91505092915050565b60008135905061083581610dbf565b92915050565b60006020828403121561084d57600080fd5b600061085b848285016107e7565b91505092915050565b6000806040838503121561087757600080fd5b6000610885858286016107e7565b925050602083013567ffffffffffffffff8111156108a257600080fd5b6108ae858286016107fc565b9150509250929050565b600080604083850312156108cb57600080fd5b60006108d9858286016107e7565b92505060206108ea85828601610826565b9150509250929050565b6108fd81610c17565b82525050565b6000815461091081610c8f565b61091a8186610bb5565b94506001821660008114610935576001811461094657610979565b60ff19831686528186019350610979565b61094f85610b95565b60005b8381101561097157815481890152600182019150602081019050610952565b838801955050505b50505092915050565b600061098d82610baa565b6109978185610bc0565b93506109a7818560208601610c5c565b6109b081610d97565b840191505092915050565b60006109c8600e83610bc0565b91507f496e76616c6964206e6f6e63652e0000000000000000000000000000000000006000830152602082019050919050565b6000610a08602183610bc0565b91507f54686973206e6f6e63652068617320616c7265616479206265656e207573656460008301527f2e000000000000000000000000000000000000000000000000000000000000006020830152604082019050919050565b610a6a81610c43565b82525050565b6000610a7c8284610903565b915081905092915050565b60006020820190508181036000830152610aa18184610982565b905092915050565b60006040820190508181036000830152610ac38185610982565b9050610ad260208301846108f4565b9392505050565b60006020820190508181036000830152610af2816109bb565b9050919050565b60006020820190508181036000830152610b12816109fb565b9050919050565b6000602082019050610b2e6000830184610a61565b92915050565b6000604051905081810181811067ffffffffffffffff82111715610b5b57610b5a610d68565b5b8060405250919050565b600067ffffffffffffffff821115610b8057610b7f610d68565b5b601f19601f8301169050602081019050919050565b60008190508160005260206000209050919050565b600081519050919050565b600081905092915050565b600082825260208201905092915050565b6000610bdc82610c43565b9150610be783610c43565b925082821015610bfa57610bf9610d0a565b5b828203905092915050565b6000610c1082610c23565b9050919050565b60008115159050919050565b600073ffffffffffffffffffffffffffffffffffffffff82169050919050565b6000819050919050565b82818337600083830152505050565b60005b83811015610c7a578082015181840152602081019050610c5f565b83811115610c89576000848401525b50505050565b60006002820490506001821680610ca757607f821691505b60208210811415610cbb57610cba610d39565b5b50919050565b6000610ccc82610c43565b91507fffffffffffffffffffffffffffffffffffffffffffffffffffffffffffffffff821415610cff57610cfe610d0a565b5b600182019050919050565b7f4e487b7100000000000000000000000000000000000000000000000000000000600052601160045260246000fd5b7f4e487b7100000000000000000000000000000000000000000000000000000000600052602260045260246000fd5b7f4e487b7100000000000000000000000000000000000000000000000000000000600052604160045260246000fd5b6000601f19601f8301169050919050565b610db181610c05565b8114610dbc57600080fd5b50565b610dc881610c43565b8114610dd357600080fd5b5056fea26469706673582212208cac74046047ddaca9f2495febb548f5cb61a87f44521f83fe2d01179b2a3cd864736f6c63430008000033",
  "immutableReferences": {},
  "source": "// SPDX-License-Identifier: MIT\npragma solidity ^0.8.0;\n\ncontract AuthenticationRegistry {\n    // Mapping to store public keys, signed nonces, and timestamps for each address\n    // mapping(address => string) public publicKeys;\n    mapping(address => string[]) public userNonces;\n    mapping(address => uint256) public nonceTimestamps;\n\n    // uint256 public constant NONCE_EXPIRATION_TIME = 1 minutes;\n\n    // Event to log when a public key and nonce are registered\n    event NonceRegistered(address indexed user, string signedNonce);\n\n    // Register the Ethereum public key, signed nonce, and nonce timestamp\n    event NonceChecked(address indexed user, string signedNonce, bool isDuplicate);\n\n    function registerPublicKeyAndNonce(address user, string memory signedNonce) public {\n        bool isDuplicate = false;\n        require(bytes(signedNonce).length > 0, \"Invalid nonce.\");\n        for (uint256 i = 0; i < userNonces[user].length; i++) {\n            if (keccak256(bytes(userNonces[user][i])) == keccak256(bytes(signedNonce))) {\n                isDuplicate = true;\n                break;\n            }\n        }\n\n        // Emit event to log the check\n        emit NonceChecked(user, signedNonce, isDuplicate);\n\n        if (isDuplicate) {\n            revert(\"This nonce has already been used.\");\n        }\n\n        // Register the new nonce and store the timestamp\n        userNonces[user].push(signedNonce);\n        nonceTimestamps[user] = block.timestamp;\n\n        emit NonceRegistered(user, signedNonce);\n    }\n\n\n    function getUserNoncesLength(address user) public view returns (uint256) {\n        return userNonces[user].length;\n    }\n\n    // function isNonceExpired(address user) public view returns (bool) {\n    //     // Check if the nonce has expired (for example, 15 minutes expiration)\n    //     return block.timestamp > nonceTimestamps[user] + nonceExpirationTime;\n    // }\n\n    // // Get the stored public key for a user\n    // function getPublicKey(address user) public view returns (string memory) {\n    //     return publicKeys[user];\n    // }\n\n    // Get the signed nonce for a user\n    function getSignedNonce(address user) public view returns (string memory) {\n        // Ensure that the user has at least one nonce in the list\n        if (userNonces[user].length == 0) {\n            return \"\";  // No nonce registered for this user\n        }\n        \n        // Return the last nonce from the list\n        return userNonces[user][userNonces[user].length - 1];\n    }\n\n    // Check if the nonce has expired for a given user\n    // function isNonceExpired(address user) public view returns (bool) {\n    //     return block.timestamp > (nonceTimestamps[user] + NONCE_EXPIRATION_TIME);\n    // }\n}\n",
  "sourcePath": "/Users/razvancarcadea/Desktop/dizertatie/decentralized-auth/contracts/AuthenticationRegistry.sol",
  "compiler": {
    "name": "solc",
    "version": "0.8.0+commit.c7dfd78e.Emscripten.clang"
  },
  "schemaVersion": "3.4.16",
  "updatedAt": "2025-05-31T18:03:23.934Z",
  "networkType": "ethereum",
  "devdoc": {
    "kind": "dev",
    "methods": {},
    "version": 1
  },
  "userdoc": {
    "kind": "user",
    "methods": {},
    "version": 1
  }
}